{
  "contractName": "TaskManager",
  "abi": [
    {
      "inputs": [
        {
          "internalType": "uint256",
          "name": "",
          "type": "uint256"
        }
      ],
      "name": "tasks",
      "outputs": [
        {
          "internalType": "string",
          "name": "name",
          "type": "string"
        },
        {
          "internalType": "string",
          "name": "description",
          "type": "string"
        },
        {
          "internalType": "string",
          "name": "assignee",
          "type": "string"
        },
        {
          "internalType": "string",
          "name": "status",
          "type": "string"
        },
        {
          "internalType": "string",
          "name": "deadline",
          "type": "string"
        }
      ],
      "stateMutability": "view",
      "type": "function",
      "constant": true
    },
    {
      "inputs": [
        {
          "internalType": "string",
          "name": "_name",
          "type": "string"
        },
        {
          "internalType": "string",
          "name": "_description",
          "type": "string"
        },
        {
          "internalType": "string",
          "name": "_assignee",
          "type": "string"
        },
        {
          "internalType": "string",
          "name": "_status",
          "type": "string"
        },
        {
          "internalType": "string",
          "name": "_deadline",
          "type": "string"
        }
      ],
      "name": "createTask",
      "outputs": [],
      "stateMutability": "nonpayable",
      "type": "function"
    },
    {
      "inputs": [],
      "name": "getTasks",
      "outputs": [
        {
          "components": [
            {
              "internalType": "string",
              "name": "name",
              "type": "string"
            },
            {
              "internalType": "string",
              "name": "description",
              "type": "string"
            },
            {
              "internalType": "string",
              "name": "assignee",
              "type": "string"
            },
            {
              "internalType": "string",
              "name": "status",
              "type": "string"
            },
            {
              "internalType": "string",
              "name": "deadline",
              "type": "string"
            }
          ],
          "internalType": "struct TaskManager.Task[]",
          "name": "",
          "type": "tuple[]"
        }
      ],
      "stateMutability": "view",
      "type": "function",
      "constant": true
    }
  ],
  "bytecode": "0x608060405234801561001057600080fd5b50610e25806100206000396000f3fe608060405234801561001057600080fd5b50600436106100415760003560e01c806304a87e381461004657806314c02d84146100645780638d97767214610080575b600080fd5b61004e6100b4565b60405161005b9190610b8c565b60405180910390f35b61007e600480360381019061007991906108e7565b6103ed565b005b61009a600480360381019061009591906109d6565b6104d9565b6040516100ab959493929190610bae565b60405180910390f35b60606000805480602002602001604051908101604052809291908181526020016000905b828210156103e457838290600052602060002090600502016040518060a001604052908160008201805461010b90610d37565b80601f016020809104026020016040519081016040528092919081815260200182805461013790610d37565b80156101845780601f1061015957610100808354040283529160200191610184565b820191906000526020600020905b81548152906001019060200180831161016757829003601f168201915b5050505050815260200160018201805461019d90610d37565b80601f01602080910402602001604051908101604052809291908181526020018280546101c990610d37565b80156102165780601f106101eb57610100808354040283529160200191610216565b820191906000526020600020905b8154815290600101906020018083116101f957829003601f168201915b5050505050815260200160028201805461022f90610d37565b80601f016020809104026020016040519081016040528092919081815260200182805461025b90610d37565b80156102a85780601f1061027d576101008083540402835291602001916102a8565b820191906000526020600020905b81548152906001019060200180831161028b57829003601f168201915b505050505081526020016003820180546102c190610d37565b80601f01602080910402602001604051908101604052809291908181526020018280546102ed90610d37565b801561033a5780601f1061030f5761010080835404028352916020019161033a565b820191906000526020600020905b81548152906001019060200180831161031d57829003601f168201915b5050505050815260200160048201805461035390610d37565b80601f016020809104026020016040519081016040528092919081815260200182805461037f90610d37565b80156103cc5780601f106103a1576101008083540402835291602001916103cc565b820191906000526020600020905b8154815290600101906020018083116103af57829003601f168201915b505050505081525050815260200190600101906100d8565b50505050905090565b60006040518060a00160405280878152602001868152602001858152602001848152602001838152509080600181540180825580915050600190039060005260206000209060050201600090919091909150600082015181600001908051906020019061045b9291906107c7565b5060208201518160010190805190602001906104789291906107c7565b5060408201518160020190805190602001906104959291906107c7565b5060608201518160030190805190602001906104b29291906107c7565b5060808201518160040190805190602001906104cf9291906107c7565b5050505050505050565b600081815481106104e957600080fd5b906000526020600020906005020160009150905080600001805461050c90610d37565b80601f016020809104026020016040519081016040528092919081815260200182805461053890610d37565b80156105855780601f1061055a57610100808354040283529160200191610585565b820191906000526020600020905b81548152906001019060200180831161056857829003601f168201915b50505050509080600101805461059a90610d37565b80601f01602080910402602001604051908101604052809291908181526020018280546105c690610d37565b80156106135780601f106105e857610100808354040283529160200191610613565b820191906000526020600020905b8154815290600101906020018083116105f657829003601f168201915b50505050509080600201805461062890610d37565b80601f016020809104026020016040519081016040528092919081815260200182805461065490610d37565b80156106a15780601f10610676576101008083540402835291602001916106a1565b820191906000526020600020905b81548152906001019060200180831161068457829003601f168201915b5050505050908060030180546106b690610d37565b80601f01602080910402602001604051908101604052809291908181526020018280546106e290610d37565b801561072f5780601f106107045761010080835404028352916020019161072f565b820191906000526020600020905b81548152906001019060200180831161071257829003601f168201915b50505050509080600401805461074490610d37565b80601f016020809104026020016040519081016040528092919081815260200182805461077090610d37565b80156107bd5780601f10610792576101008083540402835291602001916107bd565b820191906000526020600020905b8154815290600101906020018083116107a057829003601f168201915b5050505050905085565b8280546107d390610d37565b90600052602060002090601f0160209004810192826107f5576000855561083c565b82601f1061080e57805160ff191683800117855561083c565b8280016001018555821561083c579182015b8281111561083b578251825591602001919060010190610820565b5b509050610849919061084d565b5090565b5b8082111561086657600081600090555060010161084e565b5090565b600061087d61087884610c55565b610c24565b90508281526020810184848401111561089557600080fd5b6108a0848285610cf5565b509392505050565b600082601f8301126108b957600080fd5b81356108c984826020860161086a565b91505092915050565b6000813590506108e181610dd8565b92915050565b600080600080600060a086880312156108ff57600080fd5b600086013567ffffffffffffffff81111561091957600080fd5b610925888289016108a8565b955050602086013567ffffffffffffffff81111561094257600080fd5b61094e888289016108a8565b945050604086013567ffffffffffffffff81111561096b57600080fd5b610977888289016108a8565b935050606086013567ffffffffffffffff81111561099457600080fd5b6109a0888289016108a8565b925050608086013567ffffffffffffffff8111156109bd57600080fd5b6109c9888289016108a8565b9150509295509295909350565b6000602082840312156109e857600080fd5b60006109f6848285016108d2565b91505092915050565b6000610a0b8383610afa565b905092915050565b6000610a1e82610c95565b610a288185610cb8565b935083602082028501610a3a85610c85565b8060005b85811015610a765784840389528151610a5785826109ff565b9450610a6283610cab565b925060208a01995050600181019050610a3e565b50829750879550505050505092915050565b6000610a9382610ca0565b610a9d8185610cc9565b9350610aad818560208601610d04565b610ab681610dc7565b840191505092915050565b6000610acc82610ca0565b610ad68185610cda565b9350610ae6818560208601610d04565b610aef81610dc7565b840191505092915050565b600060a0830160008301518482036000860152610b178282610a88565b91505060208301518482036020860152610b318282610a88565b91505060408301518482036040860152610b4b8282610a88565b91505060608301518482036060860152610b658282610a88565b91505060808301518482036080860152610b7f8282610a88565b9150508091505092915050565b60006020820190508181036000830152610ba68184610a13565b905092915050565b600060a0820190508181036000830152610bc88188610ac1565b90508181036020830152610bdc8187610ac1565b90508181036040830152610bf08186610ac1565b90508181036060830152610c048185610ac1565b90508181036080830152610c188184610ac1565b90509695505050505050565b6000604051905081810181811067ffffffffffffffff82111715610c4b57610c4a610d98565b5b8060405250919050565b600067ffffffffffffffff821115610c7057610c6f610d98565b5b601f19601f8301169050602081019050919050565b6000819050602082019050919050565b600081519050919050565b600081519050919050565b6000602082019050919050565b600082825260208201905092915050565b600082825260208201905092915050565b600082825260208201905092915050565b6000819050919050565b82818337600083830152505050565b60005b83811015610d22578082015181840152602081019050610d07565b83811115610d31576000848401525b50505050565b60006002820490506001821680610d4f57607f821691505b60208210811415610d6357610d62610d69565b5b50919050565b7f4e487b7100000000000000000000000000000000000000000000000000000000600052602260045260246000fd5b7f4e487b7100000000000000000000000000000000000000000000000000000000600052604160045260246000fd5b6000601f19601f8301169050919050565b610de181610ceb565b8114610dec57600080fd5b5056fea2646970667358221220dc823ed7ce90bf92be321975a5c5a89286f927bcfdf1b1b48ca0ae76bff52b6764736f6c63430008000033",
  "immutableReferences": {},
  "source": "// SPDX-License-Identifier: MIT\r\npragma solidity ^0.8.0;\r\n\r\ncontract TaskManager {\r\n    struct Task {\r\n        string name;\r\n        string description;\r\n        string assignee;\r\n        string status;\r\n        string deadline;\r\n    }\r\n\r\n    Task[] public tasks;\r\n\r\n    function createTask(string memory _name, string memory _description, string memory _assignee, string memory _status, string memory _deadline) public {\r\n        tasks.push(Task(_name, _description, _assignee, _status, _deadline));\r\n    }\r\n\r\n    function getTasks() public view returns (Task[] memory) {\r\n        return tasks;\r\n    }\r\n}\r\n",
  "sourcePath": "C:\\Users\\DELL\\task-manager\\contracts\\TaskManager.sol",
  "compiler": {
    "name": "solc",
    "version": "0.8.0+commit.c7dfd78e.Emscripten.clang"
  },
  "schemaVersion": "3.4.16",
  "updatedAt": "2024-05-15T04:01:00.652Z",
  "networkType": "ethereum",
  "devdoc": {
    "kind": "dev",
    "methods": {},
    "version": 1
  },
  "userdoc": {
    "kind": "user",
    "methods": {},
    "version": 1
  }
}